:020000040800F2
:1000000000000220E5100008250F00082B0F000853
:10001000310F0008370F00083D0F000800000000F6
:10002000000000000000000000000000430F000876
:10003000510F0008000000005F0F00086D0F00085E
:100040003511000835110008351100083511000878
:100050003511000835110008351100083511000868
:100060003511000835110008351100083511000858
:100070003511000835110008351100083511000848
:100080003511000835110008351100080000000086
:100090000000000000000000000000003511000812
:1000A0003511000835110008351100083511000818
:1000B0003511000835110008351100083511000808
:1000C00035110008351100083511000835110008F8
:1000D0003511000835110008351100080000000036
:1000E0003511000835110008351100080000000026
:1000F00000000000000000000000000035110008B2
:100100000000000035110008351100083511000805
:1001100000000000000000000000000000000000DF
:100120003511000835110008351100083511000897
:100130003511000800000000000000000000000071
:100140000000000000000000000000003511000861
:100150003511000835110008351100083511000867
:1001600035110008351100080000000000000000F3
:10017000000000000000000000000000000000007F
:100180000000000035110008000000000000000021
:080190003511000835110008CB
:1001A00010B5054C237833B9044B13B10448AFF3B1
:1001B00000800123237010BD6800002000000000B3
:1001C000143E000808B5034B1BB103490348AFF3C5
:1001D000008008BD000000006C000020143E0008F4
:1001E00001F0FF01102A2BDB10F0070F08D010F8E8
:1001F000013B013A8B422DD010F0070F42B3F6D1EC
:10020000F0B441EA012141EA014122F007047FF004
:1002100000070023F0E80256083C85EA010586EA5B
:10022000010685FA47F5A3FA87F586FA47F6A5FA97
:1002300087F68EB9EED1F0BC01F0FF0102F00702A3
:1002400032B110F8013B013A83EA010313B1F8D14E
:100250000020704701387047002D06BF354603382F
:10026000073815F0010F07D1013015F4807F02BF68
:10027000013015F4C03F0130F0BC0138704700BFB9
:1002800053B94AB9002908BF00281CBF4FF0FF31FD
:100290004FF0FF3000F070B9ADF1080C6DE904CEFD
:1002A00000F006F8DDF804E0DDE9022304B0704751
:1002B0002DE9F047089E0D4604460F46002B4AD113
:1002C0008A42944665D9B2FA82F343B102FA03FC3A
:1002D000C3F120029F4020FA02F217439C404FEAEC
:1002E0001C4E1FFA8CF5B7FBFEF1220C0EFB1177AA
:1002F00042EA074201FB05F090420AD91CEB0202D8
:1003000001F1FF3780F01C81904240F219810239DF
:100310006244121AA4B2B2FBFEF00EFB102244EAB1
:10032000024400FB05F5A5420AD91CEB040400F1C8
:10033000FF3280F00781A54240F204816444023814
:1003400040EA0140641B00211EB1DC400023C6E9E5
:100350000043BDE8F0878B4208D9002E00F0ED8005
:100360000021C6E900050846BDE8F087B3FA83F12D
:10037000002949D1AB4202D3824200F2F880841AAC
:1003800065EB030201201746002EE2D0C6E90047C4
:10039000DFE702B9FFDEB2FA82F3002B40F0908073
:1003A0008A1A4FEA1C471FFA8CFE0121B2FBF7F5AF
:1003B00007FB1520220C42EA00420EFB05F090429A
:1003C00008D91CEB020205F1FF3802D2904200F27C
:1003D000CB804546121AA4B2B2FBF7F007FB1022FD
:1003E00044EA02440EFB00FEA64508D91CEB0404B7
:1003F00000F1FF3202D2A64500F2BB801046A4EB0A
:100400000E0440EA05409FE7C1F120078B4022FA25
:1004100007FC4CEA030C05FA01F420FA07F3FD404F
:100420004FEA1C492343B5FBF9F81FFA8CFE09FB80
:1004300018551C0C44EA054408FB0EF5A54202FAC7
:1004400001F200FA01F00BD91CEB040408F1FF3AA9
:1004500080F08880A54240F28580A8F102086444BB
:10046000641B9DB2B4FBF9F309FB134445EA044451
:1004700003FB0EFEA64508D91CEB040403F1FF356F
:100480006CD2A6456AD9023B644443EA0843A3FB05
:100490000295A4EB0E04AC42C846AE4656D353D0E8
:1004A00056B1B0EB080264EB0E0404FA07F7CA4039
:1004B000CC401743C6E9007418460021BDE8F08718
:1004C000C3F1200102FA03FC20FA01F225FA01F13E
:1004D0009D402A434FEA1C471FFA8CFEB1FBF7F000
:1004E00007FB1015110C41EA054100FB0EF58D428A
:1004F00004FA03F408D91CEB010100F1FF382FD2F4
:100500008D422DD902386144491B92B2B1FBF7F5F7
:1005100007FB151142EA014205FB0EF1914208D991
:100520001CEB020205F1FF3816D2914214D9023DAC
:100530006244521A45EA004138E73146304608E73E
:100540003946E6E61046FBE64845A9D2B9EB020873
:1005500065EB0C0E013BA3E74546EAE72B4694E723
:100560004046D1E7D0467BE7023D624432E7084689
:100570000AE76444023842E7704700BF80B582B0A2
:1005800000AF0023FB711F4802F0DCFD1E4B002270
:100590001A601E4B00221A601D4B00221A601D4B70
:1005A00001221A7040F2094200211B4802F0AAFE03
:1005B00040F20941184800F005F90346BB80BB88AA
:1005C000002B07D0BB881946134800F029F80346D2
:1005D000FB7101E00123FB71FB79002B06D00F4872
:1005E00002F0B0FD012000F0A9F906E0002000F0C3
:1005F000A5F9084B1B78002BD4D1FB791846083796
:10060000BD4680BD2C3E0008D4040020DC04002040
:10061000D8040020D1040020C80000204C3E00086F
:1006200080B58AB000AF78600B467B80012387F8E5
:1006300027307B68002B00F0AD807B88002B00F01A
:10064000A9807B683B623B6A5B78002B04D13B6AE4
:100650001B79022B00F09580514B1B78042B00F284
:100660008C8001A252F823F07D0600088B0600085A
:10067000B3060008E906000853070008494802F0DD
:1006800061FD002387F8273084E07B68FB60FB680E
:100690005B78002B77D1FB681B79002B73D1424824
:1006A00002F050FD3E4B02221A70002387F82730DB
:1006B00069E07B683B613B695B78022B65D13B69F4
:1006C0005B683A4A13603B699B68394A1360374B51
:1006D0001B681946374802F0CFFC314B03221A70D1
:1006E000002387F8273050E07B68BB61BB699A78AC
:1006F000DB781B021343FB82BB695B78012B46D17D
:100700007B68181D2C4B1B68002B0CBF012300239A
:10071000DAB2FB8A194600F037F903467B757B7D18
:10072000002B34D1244B1B68990A204B1B689B0A71
:100730001A46224802F0A0FC1F4B1A681B4B1B688C
:100740009A4202D3164B04221A70002387F82730EE
:100750001DE07B68FB61FB695B78002B19D1FB69AD
:100760001B79012B15D1164802F0ECFC0C4B002232
:100770001A70002387F827300BE0012387F8273011
:1007800008E000BF06E000BF04E000BF02E000BFD9
:1007900000E000BF97F8273018462837BD4680BDD7
:1007A000D10400205C3E0008743E0008D404002000
:1007B000D8040020903E0008DC040020B83E000869
:1007C000C43E000880B584B000AF78600B467B80E3
:1007D0000023BB81BB897A68D1184FF0FF33012217
:1007E000544802F014F80346FB81B7F90E30002B91
:1007F0007FD1BB895A1CBA811A467B6813441B7887
:10080000AA2B02D00123FB817CE0BB895A1CBA8150
:100810001A467B6899184FF0FF330122454801F0D2
:10082000F6FF0346FB81B7F90E30002B63D1BB897D
:100830007A68D1184FF0FF3302223E4801F0E7FFFB
:100840000346FB81B7F90E30002B56D1BB897A687D
:1008500013441B883B81BB890233BB8100237B810E
:1008600014E0BB895A1CBA811A467B6899184FF06C
:10087000FF3301222F4801F0CAFF0346FB81B7F97D
:100880000E30002B07D17B8901337B817A893B892C
:100890009A42E6D300E000BFBB897A68D1184FF0D6
:1008A000FF330422234801F0B2FF0346FB81B7F96E
:1008B0000E30002B23D1BB890433BB81BB897A68FE
:1008C000D1184FF0FF3301221A4801F0A0FF034670
:1008D000FB81B7F90E30002B13D1BB895A1CBA81AA
:1008E0001A467B6813441B78BB2B0BD00123FB817A
:1008F00008E000BF06E000BF04E000BF02E000BF68
:1009000000E000BFB7F90E30002B01D00023BB81FF
:100910007A88BB899A4207D27B88BA8919460648E9
:1009200002F0AAFB0023BB81BB8918461037BD46E5
:1009300080BD00BF84000020E03E000880B586B086
:1009400000AF0346FB71AA233B7303237B73012390
:10095000FB81FB793B7400237B740023BB74002371
:10096000FB7400233B75BB237B7507F10C014FF033
:10097000FF330A22034801F0B8FE00BF1837BD4616
:1009800080BD00BF84000020B0B58AB000AF7860A1
:100990000B467B8013467B7000F0B8FD034687F85A
:1009A000273097F82730002B59D17B78002B19D0AE
:1009B000304802F0C7FB0023FB6005237B61022364
:1009C000BB610223FB6107F1080207F10C0311462A
:1009D000184600F00DFF034687F8273097F82730B8
:1009E000002B3ED100233B6228E0234B1B6803F120
:1009F000006101F580213B6A04331A467B68134489
:100A00001B78DBB200221C46154622462B460020EE
:100A100000F028FD034687F8273097F82730002B91
:100A200005D1154B1B680133134A136003E01348CB
:100A300002F088FB06E03B6A01333B627B883A6A3E
:100A40009A42D2DB97F82730002B0CD100F080FDC2
:100A5000034687F8273097F82730002B04E000BFC3
:100A600002E000BF00E000BF97F8273018462837A3
:100A7000BD46B0BD243F0008DC040020443F000810
:100A800080B584B000AF00F057FB00F055F800F0DF
:100A900005F900F0AFF800F0D7F80023012219465D
:100AA0001E4802F0E9FA012201211D4801F05EF919
:100AB0004FF4FA6000F0B2FB00F0A4FB034603F62B
:100AC000B833FB60174802F03DFB4FF40051164865
:100AD00001F034F90346FB7200F094FB7860FB7A76
:100AE000002B04D17A68FB689A4200D8EDE7FB7AC4
:100AF000012B10D10D4802F025FBFFF73FFD034607
:100B0000002B03D00A4802F01DFBFEE7094802F063
:100B100019FB00F096FC00F041F9FEE7583F000891
:100B200000040240783F000800080240B03F00087F
:100B3000D43F0008F03F000880B594B000AF07F143
:100B4000200330220021184602F0DCFB07F10C03E1
:100B500000221A605A609A60DA601A610023BB6052
:100B6000224B1B6C214A43F0805313641F4B1B6CB8
:100B700003F08053BB60BB6800237B601C4B1B6889
:100B80001B4A43F440431360194B1B6803F4404372
:100B90007B607B6802233B620123FB6210233B6383
:100BA0000023BB6307F12003184601F0F9F8034660
:100BB000002B01D000F00CF90F23FB6000233B61F8
:100BC00000237B610023BB610023FB6107F10C0361
:100BD0000021184601F05CFB0346002B01D000F019
:100BE000F7F800BF5037BD4680BD00BF0038024057
:100BF0000070004080B500AF114B124A1A60104BD4
:100C00004FF416525A600E4B00229A600C4B002291
:100C1000DA600B4B00221A61094B0C225A61084B17
:100C200000229A61064B0022DA61054801F010FDAE
:100C30000346002B01D000F0CBF800BF80BD00BF01
:100C4000E00400200010014080B500AF114B124AB3
:100C50001A60104B4FF416525A600E4B00229A60E5
:100C60000C4B0022DA600B4B00221A61094B0C225C
:100C70005A61084B00229A61064B0022DA6105484E
:100C800001F0E6FC0346002B01D000F0A1F800BF04
:100C900080BD00BF840000200044004080B58AB0C1
:100CA00000AF07F1140300221A605A609A60DA60FC
:100CB0001A6100233B612D4B1B6B2C4A43F004034C
:100CC00013632A4B1B6B03F004033B613B69002356
:100CD000FB60264B1B6B254A43F080031363234BB9
:100CE0001B6B03F08003FB60FB680023BB601F4BA2
:100CF0001B6B1E4A43F0010313631C4B1B6B03F079
:100D00000103BB60BB6800237B60184B1B6B174A59
:100D100043F002031363154B1B6B03F002037B606C
:100D20007B6800220121124801F020F84FF40053A3
:100D30007B610023BB610023FB6107F114031946AB
:100D40000C4800F077FE01237B610123BB61002387
:100D5000FB6100233B6207F114031946044800F0CD
:100D600069FE00BF2837BD4680BD00BF0038024085
:100D7000000402400008024080B582B000AF7860F5
:100D8000391D4FF0FF330122034801F0AEFC7B68B0
:100D900018460837BD4680BDE004002080B582B00B
:100DA00000AF084802F0CEF9074B1B687B600022B9
:100DB0000121064800F0DAFF7B68984700BF08373A
:100DC000BD4680BD1840000804000408000402402D
:100DD00080B400AF72B600BFFEE7000080B483B0FD
:100DE00000AF00237B60104B5B6C0F4A43F48043E1
:100DF00053640D4B5B6C03F480437B607B68002382
:100E00003B60094B1B6C084A43F080531364064B4C
:100E10001B6C03F080533B603B6800BF0C37BD4642
:100E20005DF8047B704700BF0038024080B58CB08D
:100E300000AF786007F11C0300221A605A609A60C4
:100E4000DA601A617B681B68324A93422DD1002315
:100E5000BB61314B5B6C304A43F0100353642E4B43
:100E60005B6C03F01003BB61BB6900237B612A4B01
:100E70001B6B294A43F001031363274B1B6B03F0E1
:100E800001037B617B694FF4C063FB6102233B621A
:100E900000237B620323BB620723FB6207F11C0371
:100EA00019461E4800F0C6FD30E07B681B681C4AEE
:100EB00093422BD100233B61174B1B6C164A43F422
:100EC00000331364144B1B6C03F400333B613B6928
:100ED0000023FB60104B1B6B0F4A43F001031363AD
:100EE0000D4B1B6B03F00103FB60FB680C23FB61E4
:100EF00002233B6200237B620323BB620723FB6266
:100F000007F11C031946054800F094FD00BF303777
:100F1000BD4680BD00100140003802400000024084
:100F20000044004080B400AFFEE780B400AFFEE7AD
:100F300080B400AFFEE780B400AFFEE780B400AF3E
:100F4000FEE780B400AF00BFBD465DF8047B70478C
:100F500080B400AF00BFBD465DF8047B704780B42D
:100F600000AF00BFBD465DF8047B704780B500AFA1
:100F700000F034F900BF80BD80B586B000AFF860E6
:100F8000B9607A6000237B610AE0AFF3008001461C
:100F9000BB685A1CBA60CAB21A707B6901337B61A4
:100FA0007A697B689A42F0DB7B6818461837BD4641
:100FB00080BD80B586B000AFF860B9607A6000236C
:100FC0007B6109E0BB685A1CBA601B781846FFF7C2
:100FD000D3FE7B6901337B617A697B689A42F1DBDE
:100FE0007B6818461837BD4680BD80B483B000AF1B
:100FF00078604FF0FF3318460C37BD465DF8047B30
:10100000704780B483B000AF786039603B684FF4BC
:1010100000525A60002318460C37BD465DF8047B29
:10102000704780B483B000AF7860012318460C3756
:10103000BD465DF8047B704780B485B000AFF860B2
:10104000B9607A60002318461437BD465DF8047B0A
:101050007047000080B586B000AF7860144A154B29
:10106000D31A7B617B693B61134B1B68002B02D158
:10107000114B124A1A60104B1A687B6813443A6984
:101080009A4207D202F08CF903460C221A604FF004
:10109000FF3309E0084B1B68FB60074B1A687B684D
:1010A0001344054A1360FB6818461837BD4680BDD7
:1010B0000000022000040000240500209806002003
:1010C00080B400AF064BD3F88830054A43F4700370
:1010D000C2F8883000BFBD465DF8047B704700BF92
:1010E00000ED00E0DFF834D00D480E490E4A002331
:1010F00002E0D458C4500433C4188C42F9D30B4ACC
:101100000B4C002301E013600432A242FBD3FFF733
:10111000D7FF02F04BF9FFF7B3FC70470000022045
:1011200000000020680000209040000868000020B7
:1011300098060020FEE7000080B500AF0E4B1B684C
:101140000D4A43F4007313600B4B1B680A4A43F4C7
:1011500080631360084B1B68074A43F48073136075
:10116000032000F047F90F2000F008F8FFF736FEE3
:101170000023184680BD00BF003C024080B582B00D
:1011800000AF7860124B1A68124B1B7819464FF467
:101190007A73B3FBF1F3B2FBF3F3184600F055F9A1
:1011A0000346002B01D001230EE07B680F2B0AD8E9
:1011B000002279684FF0FF3000F027F9064A7B687B
:1011C0001360002300E0012318460837BD4680BDA8
:1011D00000000020080000200400002080B400AFC0
:1011E000064B1B781A46064B1B681344044A1360CF
:1011F00000BFBD465DF8047B704700BF08000020BB
:101200002805002080B400AF034B1B681846BD467C
:101210005DF8047B704700BF2805002080B584B0CE
:1012200000AF7860FFF7EEFFB8607B68FB60FB689B
:10123000B3F1FF3F05D00A4B1B781A46FB681344F5
:10124000FB6000BFFFF7DEFF0246BB68D31AFA68F7
:101250009A42F7D800BF00BF1037BD4680BD00BF1F
:101260000800002080B485B000AF78607B6803F090
:101270000703FB600C4BDB68BB60BA684FF6FF03EB
:101280001340BB60FB681A02BB68134343F0BF63A3
:1012900043F40033BB60044ABB68D36000BF14371B
:1012A000BD465DF8047B704700ED00E080B400AF00
:1012B000044BDB681B0A03F007031846BD465DF8C4
:1012C000047B704700ED00E080B483B000AF0346BC
:1012D0003960FB7197F90730002B0ADB3B68DAB203
:1012E0000C4997F907301201D2B20B4483F800235E
:1012F0000AE03B68DAB20849FB7903F00F03043BCC
:101300001201D2B20B441A7600BF0C37BD465DF80D
:10131000047B704700E100E000ED00E080B489B09C
:1013200000AFF860B9607A60FB6803F00703FB6107
:10133000FB69C3F10703042B28BF0423BB61FB69CE
:101340000433062B02D9FB69033B00E000237B61D9
:101350004FF0FF32BB6902FA03F3DA43BB681A406D
:101360007B699A404FF0FF317B6901FA03F3D9435F
:101370007B680B40134318462437BD465DF8047B59
:101380007047000080B400AFBFF34F8F00BF064B23
:10139000DB6803F4E0620449044B1343CB60BFF302
:1013A0004F8F00BF00BFFDE700ED00E00400FA052D
:1013B00080B582B000AF78607B68013BB3F1807F7D
:1013C00001D301230FE00A4A7B68013B53600F21E0
:1013D0004FF0FF30FFF778FF054B00229A60044B77
:1013E00007221A60002318460837BD4680BD00BF9B
:1013F00010E000E080B582B000AF78607868FFF759
:1014000031FF00BF0837BD4680BD80B586B000AF54
:101410000346B9607A60FB7300237B61FFF746FFE8
:1014200078617A68B9687869FFF778FF024697F9BA
:101430000F3011461846FFF747FF00BF1837BD466B
:1014400080BD80B500AFFFF79DFF80B582B000AFD3
:1014500078607868FFF7ACFF034618460837BD464A
:1014600080BD000080B586B000AFF860B960C7E904
:1014700000230123FB75234B1B7E012B01D102238B
:101480003BE0204B01221A764CF2503000F070F80D
:101490000346FB75FB7D002B2BD1FB68002B05D190
:1014A0003B781946B86800F01BF916E0FB68012B81
:1014B00005D13B881946B86800F0EEF80DE0FB68EE
:1014C000022B05D13B681946B86800F0C3F804E068
:1014D000D7E90023B86800F08BF84CF2503000F0E8
:1014E00047F80346FB75084B1B69074A23F00103C5
:1014F0001361044B00221A76FB7D18461837BD464F
:1015000080BD00BF2C050020003C024080B483B0A9
:1015100000AF0023FB710B4B1B69002B0BDA094B4F
:10152000094A5A60074B094A5A60064B1B69002B4F
:1015300001DA0123FB71FB7918460C37BD465DF8D3
:10154000047B7047003C024023016745AB89EFCD27
:1015500080B400AF054B1B69044A43F0004313619C
:1015600000231846BD465DF8047B7047003C0240EE
:1015700080B584B000AF78600023FB601A4B002276
:10158000DA61FFF73FFEF86010E07B68B3F1FF3FE0
:101590000CD07B68002B07D0FFF734FE0246FB68B7
:1015A000D31A7A689A4201D2032319E00F4BDB6801
:1015B00003F48033002BE8D10C4BDB6803F001030C
:1015C000002B02D0094B0122DA60084BDB6803F4E0
:1015D000F973002B03D000F0A5F8012300E00023ED
:1015E00018461037BD4680BD2C050020003C024047
:1015F00080B485B000AFF860C7E90023144B1B69C5
:10160000134A23F440731361114B1B69104A43F4CE
:10161000407313610E4B1B690D4A43F001031361C4
:10162000FB683A681A60BFF36F8F00BFD7E900010B
:101630004FF000024FF000030A000023F968043164
:1016400013460B6000BF1437BD465DF8047B70473E
:10165000003C024080B483B000AF786039600D4B2D
:101660001B690C4A23F4407313610A4B1B69094A36
:1016700043F400731361074B1B69064A43F00103EF
:1016800013617B683A681A6000BF0C37BD465DF88D
:10169000047B7047003C024080B483B000AF7860A8
:1016A0000B467B800D4B1B690C4A23F4407313617E
:1016B0000A4B1B69094A43F480731361074B1B698A
:1016C000064A43F0010313617B687A881A8000BFE1
:1016D0000C37BD465DF8047B704700BF003C0240FC
:1016E00080B483B000AF78600B46FB700C4B1B6975
:1016F0000B4A23F440731361094B094A1B691361B8
:10170000074B1B69064A43F0010313617B68FA78B3
:101710001A7000BF0C37BD465DF8047B704700BFF0
:10172000003C024080B400AF2F4BDB6803F0100395
:10173000002B08D02D4BDB6943F010032B4AD361FB
:10174000294B1022DA60284BDB6803F02003002BC2
:1017500008D0264BDB6943F00803244AD361224BAF
:101760002022DA60204BDB6803F04003002B08D016
:101770001E4BDB6943F004031C4AD3611A4B402221
:10178000DA60194BDB6803F08003002B08D0174B9D
:10179000DB6943F00203154AD361134B8022DA6000
:1017A000114BDB6803F48073002B09D00F4BDB690E
:1017B00043F001030D4AD3610B4B4FF48072DA60A2
:1017C000094BDB6803F00203002B08D0074BDB69F1
:1017D00043F02003054AD361034B0222DA6000BFC5
:1017E000BD465DF8047B7047003C02402C0500209C
:1017F00080B584B000AF786039600123FB730023AB
:10180000BB60314B1B7E012B01D1022358E02E4BD4
:1018100001221A764CF25030FFF7AAFE0346FB7302
:10182000FB7B002B48D13B684FF0FF321A607B688E
:101830001B68012B15D17B681B69DAB27B685B687A
:101840001946104600F044F84CF25030FFF790FE75
:101850000346FB731D4B1B691C4A23F004031361F1
:1018600028E07B689B68BB601CE07B681B69DBB27F
:101870001946B86800F050F84CF25030FFF778FE87
:101880000346FB73114B1B69104A23F0FA031361E3
:10189000FB7B002B03D03B68BA681A600AE0BB6888
:1018A0000133BB607B68DA687B689B681344BA6865
:1018B0009A42DAD300F078F8034B00221A76FB7BC9
:1018C00018461037BD4680BD2C050020003C024064
:1018D00080B483B000AF03463960FB710D4B1B69C8
:1018E0000C4A23F4407313610A4B1B69094A43F005
:1018F00004031361074B1A69FB791B021343054A62
:1019000043F48033136100BF0C37BD465DF8047BA0
:10191000704700BF003C024080B485B000AF7860E3
:101920000B46FB700023FB60FB78002B02D10023E9
:10193000FB6010E0FB78012B03D14FF48073FB6058
:1019400009E0FB78022B03D14FF40073FB6002E047
:101950004FF44073FB60134B1B69124A23F440732E
:101960001361104B1A690F49FB6813430B610D4B50
:101970001B690C4A23F0F80313610A4B1A697B6850
:10198000DB001343074A43F002031361054B1B6955
:10199000044A43F48033136100BF1437BD465DF839
:1019A000047B7047003C024080B400AF204B1B68B2
:1019B00003F40073002B17D01D4B1B681C4A23F443
:1019C000007313601A4B1B68194A43F400631360D9
:1019D000174B1B68164A23F400631360144B1B68F3
:1019E000134A43F400731360114B1B6803F48063C4
:1019F000002B17D00E4B1B680D4A23F48063136035
:101A00000B4B1B680A4A43F480531360084B1B6856
:101A1000074A23F480531360054B1B68044A43F4C0
:101A20008063136000BFBD465DF8047B704700BF54
:101A3000003C024080B489B000AF78603960002378
:101A40007B6100233B610023BB610023FB6159E103
:101A50000122FB6902FA03F37B613B681B687A6928
:101A600013403B613A697B699A4240F048813B6888
:101A70005B6803F00303012B05D03B685B6803F050
:101A80000303022B30D17B689B68BB61FB695B0061
:101A9000032202FA03F3DB43BA691340BB613B68DC
:101AA000DA68FB695B0002FA03F3BA691343BB61AE
:101AB0007B68BA699A607B685B68BB610122FB69DD
:101AC00002FA03F3DB43BA691340BB613B685B680E
:101AD0001B0903F00102FB6902FA03F3BA6913431D
:101AE000BB617B68BA695A603B685B6803F00303BB
:101AF000032B17D07B68DB68BB61FB695B000322AB
:101B000002FA03F3DB43BA691340BB613B689A688E
:101B1000FB695B0002FA03F3BA691343BB617B689C
:101B2000BA69DA603B685B6803F00303022B23D1D8
:101B3000FB69DA087B68083253F82230BB61FB6925
:101B400003F007039B000F2202FA03F3DB43BA6999
:101B50001340BB613B681A69FB6903F007039B00F4
:101B600002FA03F3BA691343BB61FB69DA087B68C5
:101B70000832B96943F822107B681B68BB61FB69B6
:101B80005B00032202FA03F3DB43BA691340BB6133
:101B90003B685B6803F00302FB695B0002FA03F336
:101BA000BA691343BB617B68BA691A603B685B68BA
:101BB00003F44033002B00F0A2800023FB60574B5E
:101BC0005B6C564A43F480435364544B5B6C03F4A0
:101BD0008043FB60FB68524AFB699B08023352F862
:101BE0002330BB61FB6903F003039B000F2202FA61
:101BF00003F3DB43BA691340BB617B68494A9342F4
:101C000019D07B68484A934213D07B68474A934275
:101C10000DD07B68464A934207D07B68454A934281
:101C200001D1042308E0072306E0032304E0022394
:101C300002E0012300E00023FA6902F003029200AF
:101C40009340BA691343BB613549FB699B08023372
:101C5000BA6941F82320384B9B68BB613B69DB4381
:101C6000BA691340BB613B685B6803F48013002BC7
:101C700003D0BA693B691343BB612F4ABB699360C8
:101C80002D4BDB68BB613B69DB43BA691340BB6129
:101C90003B685B6803F40013002B03D0BA693B690F
:101CA0001343BB61244ABB69D360234B5B68BB61B0
:101CB0003B69DB43BA691340BB613B685B6803F473
:101CC0000033002B03D0BA693B691343BB611A4A46
:101CD000BB695360184B1B68BB613B69DB43BA6946
:101CE0001340BB613B685B6803F48033002B03D077
:101CF000BA693B691343BB610F4ABB691360FB6957
:101D00000133FB61FB690F2B7FF6A2AE00BF00BF62
:101D10002437BD465DF8047B704700BF00380240A1
:101D20000038014000000240000402400008024068
:101D3000000C024000100240003C014080B485B01D
:101D400000AF78600B467B807B681A697B88134004
:101D5000002B02D00123FB7301E00023FB73FB7B0C
:101D600018461437BD465DF8047B704780B483B0D5
:101D700000AF78600B467B8013467B707B78002B2E
:101D800003D07A887B689A6103E07B881A047B68B9
:101D90009A6100BF0C37BD465DF8047B70470000B8
:101DA00080B586B000AF78607B68002B01D101233D
:101DB00067E27B681B6803F00103002B75D0884B3A
:101DC0009B6803F00C03042B0CD0854B9B6803F03D
:101DD0000C03082B12D1824B5B6803F48003B3F52C
:101DE000800F0BD17E4B1B6803F40033002B5BD0BC
:101DF0007B685B68002B57D1012342E27B685B68FC
:101E0000B3F5803F06D1764B1B68754A43F48033A7
:101E100013601DE07B685B68B3F5A02F0CD1704B9D
:101E20001B686F4A43F4802313606D4B1B686C4A38
:101E300043F4803313600BE0694B1B68684A23F45A
:101E400080331360664B1B68654A23F4802313605C
:101E50007B685B68002B13D0FFF7D4F9386108E08A
:101E6000FFF7D0F902463B69D31A642B01D903234B
:101E700007E25B4B1B6803F40033002BF0D014E047
:101E8000FFF7C0F9386108E0FFF7BCF902463B698B
:101E9000D31A642B01D90323F3E1514B1B6803F4DC
:101EA0000033002BF0D100E000BF7B681B6803F01B
:101EB0000203002B63D04A4B9B6803F00C03002BFA
:101EC0000BD0474B9B6803F00C03082B1CD1444BF1
:101ED0005B6803F48003002B16D1414B1B6803F0B1
:101EE0000203002B05D07B68DB68012B01D00123A6
:101EF000C7E13B4B1B6823F0F8027B681B69DB00E2
:101F0000374913430B603AE07B68DB68002B20D035
:101F1000344B01221A60FFF775F9386108E0FFF7CA
:101F200071F902463B69D31A022B01D90323A8E1B8
:101F30002B4B1B6803F00203002BF0D0284B1B68CF
:101F400023F0F8027B681B69DB00254913430B6013
:101F500015E0244B00221A60FFF754F9386108E0BD
:101F6000FFF750F902463B69D31A022B01D903232C
:101F700087E11B4B1B6803F00203002BF0D17B6849
:101F80001B6803F00803002B36D07B685B69002BCD
:101F900016D0154B01221A60FFF734F9386108E0BA
:101FA000FFF730F902463B69D31A022B01D903230C
:101FB00067E10B4B5B6F03F00203002BF0D01BE0DB
:101FC000094B00221A60FFF71DF938610EE0FFF798
:101FD00019F902463B69D31A022B07D9032350E1B2
:101FE0000038024000004742800E4742884B5B6F3A
:101FF00003F00203002BEAD17B681B6803F00403A3
:10200000002B00F097800023FB75814B1B6C03F0C5
:102010008053002B0FD10023BB607D4B1B6C7C4A8F
:1020200043F0805313647A4B1B6C03F08053BB6006
:10203000BB680123FB75774B1B6803F48073002B8F
:1020400018D1744B1B68734A43F480731360FFF715
:10205000D9F8386108E0FFF7D5F802463B69D31A92
:10206000022B01D903230CE16A4B1B6803F4807334
:10207000002BF0D07B689B68012B06D1644B1B6F53
:10208000634A43F0010313671CE07B689B68052BE0
:102090000CD15F4B1B6F5E4A43F0040313675C4B2C
:1020A0001B6F5B4A43F0010313670BE0584B1B6F38
:1020B000574A23F001031367554B1B6F544A23F013
:1020C000040313677B689B68002B15D0FFF79AF811
:1020D00038610AE0FFF796F802463B69D31A41F2ED
:1020E0008832934201D90323CBE0494B1B6F03F0A5
:1020F0000203002BEED014E0FFF784F838610AE009
:10210000FFF780F802463B69D31A41F288329342C6
:1021100001D90323B5E03E4B1B6F03F00203002BF4
:10212000EED1FB7D012B05D1394B1B6C384A23F0D6
:10213000805313647B689B69002B00F0A180344BB3
:102140009B6803F00C03082B5CD07B689B69022B17
:1021500041D1314B00221A60FFF754F8386108E092
:10216000FFF750F802463B69D31A022B01D903232B
:1021700087E0274B1B6803F00073002BF0D17B68CE
:10218000DA697B681B6A1A437B685B6A9B011A43A6
:102190007B689B6A5B08013B1B041A437B68DB6A14
:1021A0001B061B4913434B601B4B01221A60FFF7B0
:1021B00029F8386108E0FFF725F802463B69D31A91
:1021C000022B01D903235CE0114B1B6803F0007361
:1021D000002BF0D054E0104B00221A60FFF712F8E9
:1021E000386108E0FFF70EF802463B69D31A022B6C
:1021F00001D9032345E0064B1B6803F00073002B55
:10220000F0D13DE07B689B69012B07D1012338E0C9
:102210000038024000700040600047421B4B5B6882
:10222000FB607B689B69012B28D0FB6803F480026C
:102230007B68DB699A4221D1FB6803F03F027B682F
:102240001B6A9A421AD1FA6847F6C07313407A683B
:10225000526A9201934211D1FB6803F440327B68C9
:102260009B6A5B08013B1B049A4207D1FB6803F0A1
:1022700070627B68DB6A1B069A4201D0012300E092
:10228000002318461837BD4680BD00BF0038024005
:1022900080B584B000AF786039607B68002B01D1D5
:1022A0000123CCE0684B1B6803F007033A689A42AD
:1022B0000CD9654B3A68D2B21A70634B1B6803F0B5
:1022C00007033A689A4201D00123B8E07B681B6893
:1022D00003F00203002B20D07B681B6803F004038B
:1022E000002B05D0594B9B68584A43F4E053936048
:1022F0007B681B6803F00803002B05D0534B9B68D9
:10230000524A43F460439360504B9B6823F0F002C1
:102310007B689B684D4913438B607B681B6803F0A7
:102320000103002B44D07B685B68012B07D1474B2E
:102330001B6803F40033002B19D101237FE07B6875
:102340005B68022B03D07B685B68032B07D13F4B94
:102350001B6803F00073002B09D101236FE03B4B96
:102360001B6803F00203002B01D1012367E0374B08
:102370009B6823F003027B685B68344913438B60DE
:10238000FEF740FFF8600AE0FEF73CFF0246FB68FC
:10239000D31A41F28832934201D903234FE02B4BE9
:1023A0009B6803F00C027B685B689B009A42EBD150
:1023B000254B1B6803F007033A689A420CD2224B64
:1023C0003A68D2B21A70204B1B6803F007033A68D0
:1023D0009A4201D0012332E07B681B6803F00403BA
:1023E000002B08D0194B9B6823F4E0527B68DB6814
:1023F000164913438B607B681B6803F00803002BAE
:1024000009D0124B9B6823F460427B681B69DB0098
:102410000E4913438B6000F021F802460B4B9B687A
:102420001B0903F00F030A49CB5C22FA03F3094AA4
:102430001360094B1B681846FEF7A0FE00231846E0
:102440001037BD4680BD00BF003C0240003802404E
:102450003440000800000020040000202DE9B04FA7
:1024600090B000AF00237B630023FB6300233B633A
:102470000023BB63594B9B6803F00C03082B0DD062
:10248000082B00F2A180002B02D0042B03D09BE08C
:10249000534BBB639BE0534BBB6398E04F4B5B6874
:1024A00003F03F037B634D4B5B6803F48003002B19
:1024B00028D04A4B5B689B0900223B627A623B6AE8
:1024C000C3F308000021474B03FB01F2002300FB8C
:1024D00003F31344434AA0FB0212FA620A46BA62AB
:1024E000FA6A1344FB627B6B0022BB61FA61D7E995
:1024F0000623D7E90A01FDF7C3FE02460B46134641
:10250000FB6353E0354B5B689B0900223B617A61BA
:102510003B69C3F3080A4FF0000B52465B464FF08D
:1025200000004FF00001590141EAD261500102461A
:102530000B46B2EB0A0863EB0B094FF000024FF0B9
:1025400000034FEA891343EA98634FEA8812B2EB1B
:10255000080463EB09054FF000024FF00003EB00A5
:1025600043EA5473E20014461D4614EB0A033B6031
:1025700045EB0B037B604FF000024FF00003D7E9FF
:10258000004529468B02214643EA915321468A029F
:10259000104619467B6B0022BB60FA60D7E9022324
:1025A000FDF76EFE02460B461346FB630B4B5B6862
:1025B0001B0C03F0030301335B003B63FA6B3B6BC3
:1025C000B2FBF3F3BB6302E0054BBB6300BFBB6B25
:1025D00018464037BD46BDE8B08F00BF0038024006
:1025E0000024F40040787D0180B400AF034B1B68E9
:1025F0001846BD465DF8047B704700BF0000002010
:1026000080B500AFFFF7F0FF0246054B9B689B0AC1
:1026100003F007030349CB5C22FA03F3184680BD9D
:10262000003802404440000880B500AFFFF7DCFFEF
:102630000246054B9B685B0B03F007030349CB5C29
:1026400022FA03F3184680BD0038024044400008D7
:1026500080B582B000AF78607B68002B01D1012388
:102660003FE07B6893F83D30DBB2002B06D17B68FE
:10267000002283F83C207868FEF7D8FB7B68242290
:1026800083F83D207B681B68DA687B681B6822F44E
:102690000052DA60786800F0CBF97B681B681A6931
:1026A0007B681B6822F490421A617B681B685A6938
:1026B0007B681B6822F02A025A617B681B68DA6813
:1026C0007B681B6842F40052DA607B6800221A645F
:1026D0007B68202283F83D207B68202283F83E20FF
:1026E000002318460837BD4680BD80B58AB002AFCA
:1026F000F860B9603B601346FB8000237B61FB6898
:1027000093F83D30DBB2202B7CD1BB68002B02D08C
:10271000FB88002B01D1012375E0FB6893F83C3066
:10272000012B01D102236EE0FB68012283F83C20DB
:10273000FB6800221A64FB68212283F83D20FEF723
:1027400061FD7861FB68FA889A84FB68FA88DA840C
:10275000FB689B68B3F5805F08D1FB681B69002BA1
:1027600004D10023FB61BB68BB6103E0BB68FB6174
:102770000023BB61FB68002283F83C202AE03B6811
:1027800000937B6900228021F86800F0E2F803469C
:10279000002B01D0032336E0FB69002B0BD1BB6972
:1027A0001B881A46FB681B68C2F308025A60BB69A3
:1027B0000233BB6107E0FB691A78FB681B685A604B
:1027C000FB690133FB61FB68DB8C9BB2013B9AB276
:1027D000FB68DA84FB68DB8C9BB2002BCFD13B68B3
:1027E00000937B6900224021F86800F0B2F80346AC
:1027F000002B01D0032306E0FB68202283F83D2054
:10280000002300E0022318462037BD4680BD80B576
:102810008AB002AFF860B9603B601346FB800023CA
:102820007B61FB6893F83E30DBB2202B40F08C805C
:10283000BB68002B02D0FB88002B01D1012384E070
:10284000FB6893F83C30012B01D102237DE0FB684B
:10285000012283F83C20FB6800221A64FB682222D4
:1028600083F83E20FB6800221A63FEF7CBFC7861F8
:10287000FB68FA889A85FB68FA88DA85FB689B68AA
:10288000B3F5805F08D1FB681B69002B04D10023DE
:10289000FB61BB68BB6103E0BB68FB610023BB61FC
:1028A000FB68002283F83C2043E03B6800937B698F
:1028B00000222021F86800F04CF80346002B01D0DC
:1028C000032342E0FB69002B0CD1FB681B685B68AB
:1028D0009BB2C3F308039AB2BB691A80BB69023387
:1028E000BB611FE0FB689B68B3F5805F07D0FB68A6
:1028F0009B68002B0AD1FB681B69002B06D1FB6883
:102900001B685B68DAB2FB691A7008E0FB681B6839
:102910005B68DBB203F07F03DAB2FB691A70FB6914
:102920000133FB61FB68DB8D9BB2013B9AB2FB6814
:10293000DA85FB68DB8D9BB2002BB6D1FB682022C9
:1029400083F83E20002300E0022318462037BD46CE
:1029500080BD80B590B000AFF860B9603B601346B1
:10296000FB7150E0BB6CB3F1FF3F4CD0BB6C002B54
:1029700007D0FEF747FC02463B68D31ABA6C9A426E
:1029800041D2FB681B680C33BB62BB6A53E8003F53
:102990007B627B6A23F4D073FB63FB681B680C3398
:1029A000FA6B7A633B63396B7A6B41E80023FB6215
:1029B000FB6A002BE5D1FB681B6814337B617B69E4
:1029C00053E8003F3B613B6923F00103BB63FB68B5
:1029D0001B681433BA6B3A62FB61F9693A6A41E8E1
:1029E0000023BB61BB69002BE5D1FB68202283F883
:1029F0003D20FB68202283F83E20FB68002283F8FC
:102A00003C2003230FE0FB681B681A68BB68134077
:102A1000BA689A420CBF01230023DBB21A46FB7945
:102A20009A429FD0002318464037BD4680BD000023
:102A30002DE9B04FC0B000AFC7F8F400D7F8F430BC
:102A40001B681B6923F44050D7F8F430D968D7F8D5
:102A5000F4301A6840EA01031361D7F8F4309A6839
:102A6000D7F8F4301B691A43D7F8F4305B691A437E
:102A7000D7F8F430DB691343C7F8F830D7F8F430EF
:102A80001B68DB6823F4164121F00C01D7F8F43001
:102A90001A68D7F8F8300B43D360D7F8F4301B68C6
:102AA0005B6923F44070D7F8F4309969D7F8F430B3
:102AB0001A6840EA01035361D7F8F4301A688F4B63
:102AC0009A4205D0D7F8F4301A688D4B9A4204D157
:102AD000FFF7AAFDC7F8FC0003E0FFF791FDC7F878
:102AE000FC00D7F8F430DB69B3F5004F40F00C81FF
:102AF000D7F8FC300022C7F8E830C7F8EC20D7E957
:102B00003A4522462B469118B9655B41FB65D7E9EA
:102B10001623214612EB0108294643EB01094FF029
:102B200000024FF000034FEAC90343EA58734FEA2B
:102B3000C80290469946234618EB0303C7F8E030D5
:102B40002B4649EB0303C7F8E430D7F8F4305B6851
:102B50000022C7F8D830C7F8DC20D7E936120B4678
:102B6000DB183B65134642EB03037B65D7E914236F
:102B7000D7E93801FDF784FB02460B46614BA3FB06
:102B800002235B091C01D7F8FC300022C7F8D030C3
:102B9000C7F8D420D7E9348942464B469118B96426
:102BA0005B41FB64D7E91223414612EB010A494617
:102BB00043EB010B4FF000024FF000034FEACB0351
:102BC00043EA5A734FEACA0292469B4643461AEBBF
:102BD0000303C7F8C8304B464BEB0303C7F8CC30B0
:102BE000D7F8F4305B680022C7F8C030C7F8C420BB
:102BF000D7E930120B46DB183B64134642EB030364
:102C00007B64D7E91023D7E93201FDF739FB02468F
:102C10000B4611463B4BA3FB01235B09642202FBDD
:102C200003F3CB1ADB0003F13202364BA3FB022382
:102C30005B095B0003F4F8731C44D7F8FC300022F6
:102C4000C7F8B830C7F8BC20D7E92E8942464B46B2
:102C50009118B9635B41FB63D7E90E2341465118D4
:102C6000396349464B417B634FF000024FF000034C
:102C7000D7E90CAB5946CB00514643EA5173514654
:102C8000CA0010461946034642469B18C7F8B030A2
:102C90004B460A4642EB0303C7F8B430D7F8F4308A
:102CA0005B680022C7F8A830C7F8AC20D7E92A1221
:102CB0000B46DB18BB62134642EB0303FB62D7E90A
:102CC0000A23D7E92C01FDF7DBFA02460B460D4B30
:102CD000A3FB02135B09642101FB03F3D31ADB009E
:102CE0003233084AA2FB03235B0903F00702D7F83B
:102CF000F4301B6822449A6006E100BF00100140D6
:102D0000001401401F85EB51D7F8FC300022C7F8B2
:102D1000A030C7F8A420D7E9288942464B4691182D
:102D200039625B417B62D7E9082341465418494622
:102D300043EB01054FF000024FF00003EB0043EAC4
:102D40005473E20014461D464346E318C7F8983012
:102D50004B4645EB0303C7F89C30D7F8F4305B686B
:102D60000022C7F89030C7F894204FF000024FF0CF
:102D70000003D7E9244529468B00214643EA917395
:102D800021468A00D7E92601FDF77AFA02460B466A
:102D9000604BA3FB02235B091C01D7F8FC30002227
:102DA000C7F88830C7F88C20D7E9228942464B46BD
:102DB0009118B9615B41FB61D7E90623414651187F
:102DC000396149464B417B614FF000024FF00003EF
:102DD000D7E904AB5946CB00514643EA51735146FB
:102DE000CA0010461946034642469B18C7F8803071
:102DF0004B460A4642EB0303C7F88430D7F8F43059
:102E00005B680022BB67FA674FF000024FF00003D7
:102E1000D7E91E8949468B00414643EA91734146F2
:102E20008A00D7E92001FDF72BFA02460B4611462E
:102E3000384BA3FB01235B09642202FB03F3CB1A8B
:102E40001B013233334AA2FB03235B0903F0F00377
:102E50001C44D7F8FC3000223B677A67D7E91C890D
:102E600042464B469118B9605B41FB60D7E90223AB
:102E700041465118396049464B417B604FF0000292
:102E80004FF00003D7E900AB5946CB00514643EA67
:102E900051735146CA0010461946034642469B18D4
:102EA000BB664B460A4642EB0303FB66D7F8F43099
:102EB0005B6800223B667A664FF000024FF0000329
:102EC000D7E9188949468B00414643EA9173414648
:102ED0008A00D7E91A01FDF7D3F902460B460D4BDC
:102EE000A3FB02135B09642101FB03F3D31A1B014B
:102EF0003233084AA2FB03235B0903F00F02D7F821
:102F0000F4301B6822449A6000BF07F58077BD4605
:102F1000BDE8B08F1F85EB51002310B50446C0E912
:102F20000033C0E90433836081814366C2818361D9
:102F3000194608225C3000F0E5F9054B6362054B49
:102F4000A362054BE362054B2462236310BD00BFFF
:102F50005531000877310008AF310008D33100083F
:102F6000024A0349034800F069B800BF0C00002082
:102F70009D3C00081800002041680C4B994210B598
:102F8000044601D000F08AFEA168094B994202D0A4
:102F9000204600F083FEE168064B994204D02046AB
:102FA000BDE8104000F07ABE10BD00BF4C05002007
:102FB000B40500201C06002010B50B4B0B4C0C4A2E
:102FC0001A60204600220421FFF7A6FF04F16800E2
:102FD00001220921FFF7A0FF04F1D0000222BDE881
:102FE00010401221FFF798BF840600204C050020F6
:102FF000612F0008014800F0FDB900BF8D060020D8
:10300000014800F0F8B900BF8D06002010B5044655
:10301000FFF7F0FF236A1BB1BDE81040FFF7F0BFD8
:10302000044B2362044B1B68002BF5D1FFF7C4FF50
:10303000F2E700BF792F0008840600202DE9F8434D
:103040000746884614460026D4E90195B9F10109DE
:1030500005D52468002CF7D13046BDE8F883AB894C
:10306000012B07D9B5F90E30013303D02946384674
:10307000C04706436835E9E70FB407B5064904AB16
:10308000086853F8042B8168019300F0D7FA03B065
:103090005DF804EB04B0704764000020036A70B56B
:1030A000846805460E460BB9FFF7B0FF636EDB0779
:1030B00005D4A389980502D4A06D00F09BF9A389DB
:1030C000190713D523698BB1013EA36816F8011FB8
:1030D000013BA360E9B9002B2EDA22460A212846DB
:1030E00000F07BF8013007D00A2507E0214628468A
:1030F00000F0B0F80028E7D04FF0FF35636EDA0734
:1031000005D4A3899B0502D4A06D00F074F928466C
:1031100070BD002B04DAA2699A4206DC0A2904D0A9
:1031200023685A1C22601970CFE72246284600F017
:1031300054F80130C9D1DFE723680A255A1C226000
:103140001D70DBE7024B01461868FFF7A7BF00BF01
:103150006400002010B50C46B1F90E1000F0FCF828
:103160000028ABBF636DA3891B1823F48053ACBF49
:103170006365A38110BD2DE9F0411F468B89DB05F6
:1031800005460C46164605D5B1F90E10022300225D
:1031900000F0D0F8A389B4F90E1023F48053A38172
:1031A00032463B462846BDE8F04100F0E7B810B58E
:1031B0000C46B1F90E1000F0BDF8431CA38915BFF1
:1031C000606523F4805343F48053A38118BFA38127
:1031D00010BDB1F90E1000F09DB8F8B50E461446BA
:1031E000054618B1036A0BB9FFF710FFA369A36086
:1031F000A3891A0725D523691BB323682269981A66
:103200006369F6B28342374604DC2146284600F063
:1032100045FDE0B9A368013BA36023685A1C226006
:103220001E706269431C9A4204D0A389DB0706D54D
:103230000A2E04D12146284600F030FD38B9384620
:10324000F8BD2146284600F005F80028D5D04FF0FB
:10325000FF37F4E738B52A4B054618680C4618B115
:10326000036A0BB9FFF7D2FEA389B4F90C20180743
:1032700022D4D90607D409232B6042F04003A3814E
:103280004FF0FF3034E0580712D5616B41B104F1C3
:103290004403994202D0284600F0AEF8002363634D
:1032A000A38923F02403A38100236360236923609F
:1032B000A38943F00803A38123694BB9A38903F4CD
:1032C0002073B3F5007F03D02146284600F034FD7B
:1032D000A089B4F90C2010F001030AD00023A360E8
:1032E00063695B42A361236943B910F08000C4D1D4
:1032F00038BD810758BF6369A360F4E70020F7E792
:103300006400002002440346934200D1704703F852
:10331000011BF9E738B5064D0023044608462B602B
:10332000FDF763FE431C02D12B6803B1236038BD57
:103330008806002038B5074D04460846114600228D
:103340002A601A46FDF778FE431C02D12B6803B1B0
:10335000236038BD8806002038B5074D044608466E
:10336000114600222A601A46FDF706FE431C02D1D0
:103370002B6803B1236038BD8806002038B5074D9F
:1033800004460846114600222A601A46FDF711FE3F
:10339000431C02D12B6803B1236038BD880600208E
:1033A000014B1868704700BF6400002070B50D4DD8
:1033B0000D4C641BA4100026A64209D10B4D0C4CE9
:1033C00000F028FD641BA4100026A64205D170BDA4
:1033D00055F8043B98470136EEE755F8043B98470B
:1033E0000136F2E78840000888400008884000085D
:1033F0008C4000087047704737B5002944D051F819
:10340000043C0190002BA1F10404B8BFE41800F0C3
:10341000DFF81E4A0198136833B96360146003B083
:10342000BDE8304000F0DAB8A34208D92568611938
:103430008B4201BF19685B6849192160EDE71A46A4
:103440005B680BB1A342FAD911685518A5420BD19C
:10345000246821445418A3421160E0D11C685B68C1
:1034600053600C441460DAE702D90C230360D6E7FA
:10347000256861198B4204BF19685B68636004BFEB
:10348000491921605460CAE703B030BD900600209E
:1034900070B50E4E0C463168054611B900F0AAFC15
:1034A00030602146284600F0A5FC431C0AD0C41C0D
:1034B00024F00304A04207D0211A284600F09AFC09
:1034C000013001D14FF0FF34204670BD940600203A
:1034D0002DE9F843CD1C25F0030508350C2D38BF28
:1034E0000C25002D074601DBA94205D90C233B60C2
:1034F00000263046BDE8F883DFF8D08000F068F899
:10350000D8F800301C465CBB29463846FFF7C0FFA0
:10351000431C044655D1D8F800402646002E45D11C
:10352000002C48D023683146384604EB030900F0EC
:1035300061FC81453FD121686D1A29463846FFF765
:10354000A7FF013037D023682B442360D8F8003020
:10355000002B38D05A68A2422BD100225A600FE0CB
:103560002268521B1FD40B2A17D96119A342256068
:1035700018BF5960636808BFC8F8001062514B60FB
:10358000384604F10B0600F029F826F00706231D43
:10359000F21AAED09B1BA350ABE7A3426268DDD109
:1035A000C8F80020ECE723466468ACE73446766848
:1035B000B4E71346CCE70C233B60384600F00EF826
:1035C00097E72560DCE75B60FFDE00BF9006002028
:1035D0000148FFF70FBF00BF8C0600200148FFF72E
:1035E0000ABF00BF8C0600209368013B002B10B47B
:1035F000936008DA9469A34201DB0A2903D15DF8DC
:10360000044BFFF7EABD1368581C10601970084698
:103610005DF8044B7047F8B506460F461446D518BA
:10362000AC4201D1002007E014F8011B3A463046B5
:10363000FFF7DAFF431CF3D1F8BD00002DE9F04F8E
:103640000D469DB014469846064618B1036A0BB95C
:10365000FFF7DCFC6B6ED90705D4AB899A0502D461
:10366000A86DFFF7C7FEAB891B0701D52B699BB976
:1036700029463046FFF7EEFD70B16B6EDC0704D5CE
:103680004FF0FF301DB0BDE8F08FAB899805F7D43F
:10369000A86DFFF7B0FEF3E70023099320238DF810
:1036A0002930CDF80C803023DFF8B0818DF82A3036
:1036B0004FF0010923469A4613F8012B0AB1252A37
:1036C000F9D1BAEB040B0BD05B46224629463046B3
:1036D000FFF7A1FF013000F0A980099A5A4409922E
:1036E0009AF80030002B00F0A18000234FF0FF3249
:1036F000CDE905230AF1010A049307938DF85330AD
:103700001A935446052214F8011B5448FCF768FD2F
:10371000049AD8B9D10644BF20238DF8533013073B
:1037200044BF2B238DF853309AF800302A2B15D044
:10373000079A544600204FF00A0C214611F8013B2D
:10374000303B092B4DD9B0B1079214E0A0EB080330
:1037500009FA03F313430493A246D2E7039B191D0E
:103760001B680391002BBBBF5B4242F00202079330
:103770000793B8BF049223782E2B0CD163782A2BA1
:1037800034D1039B1A1D1B680392002BB8BF4FF066
:10379000FF3302340593DFF8D4A02178032250468A
:1037A000FCF71EFD38B1049BA0EB0A0040228240CA
:1037B00013430134049314F8011B29488DF8281091
:1037C0000622FCF70DFD00283FD0264B1BBB039BB8
:1037D000073323F0070308330393099B3B44099302
:1037E00068E70CFB02320C460120A6E700230134F7
:1037F000059319464FF00A0C204610F8012B303A79
:10380000092A03D9002BC6D00591C4E70CFB01217E
:1038100004460123F0E703AB00932A46124B04A9A8
:103820003046AFF300800746781CD6D16B6ED907BF
:1038300005D4AB899A0502D4A86DFFF7DCFDAB89EE
:103840005B063FF51DAF09981CE703AB00932A46C2
:10385000054B04A9304600F079F8E4E74C40000835
:1038600056400008000000001736000852400008CB
:103870002DE9F047164699468A680B69DDF82080E5
:103880009342B8BF1346336091F8432007460C4675
:103890000AB1013333602368990642BF33680233AB
:1038A0003360256815F0060506D104F1190AE368AE
:1038B00032689B1AAB4226DC94F84320131E226820
:1038C00018BF012392062BD404F14302494638461F
:1038D000C04701301ED02368226903F00603042B81
:1038E00002BFE5683368ED1AA3680CBF25EAE575E9
:1038F00000259342C4BF9B1AED1800261A34B54226
:103900001AD1002008E00123524649463846C047F4
:10391000013003D14FF0FF30BDE8F0870135C6E735
:10392000E1185A1C302081F84300224494F84510D5
:1039300082F843100233C7E701232246494638463E
:10394000C0470130E6D00136D9E700002DE9FF4736
:103950000F7E0C9D782F914680460C469A4601F1C9
:10396000430207D8622F0AD8002F00F0D480582FC6
:1039700000F0C08004F1420584F842703AE0A7F1FB
:103980006303152BF6D801A151F823F0E53900089F
:10399000F9390008753900087539000875390008CB
:1039A00075390008F93900087539000875390008BB
:1039B0007539000875390008FD3A0008253A0008F5
:1039C000B73A000875390008753900081F3B000830
:1039D00075390008253A000875390008753900085E
:1039E000BF3A00082B681A1D1B682A6004F14205C3
:1039F00084F8423001239FE020682B68070603F11A
:103A00000401296001D51E6803E04606FBD5B3F921
:103A10000060002E03DA2D23764284F843305A48A2
:103A20000A2312E02B682068191D2960050601D5BC
:103A30001E6802E04106FBD51E8853486F2F0CBF5D
:103A400008230A23002184F843106568A560002D2F
:103A5000A2BF216821F0040121600EB9002D4BD0D6
:103A60001546B6FBF3F103FB1167C75D05F8017D51
:103A70003746BB420E46F4D9082B0BD12368DE072C
:103A800008D5236961689942DEBF302305F8013CFF
:103A900005F1FF35521B2261CDF800A04B4603AA69
:103AA00021464046FFF7E4FE01304AD14FF0FF3097
:103AB00004B0BDE8F087236843F020032360334857
:103AC000782784F84570236829681F0651F8046B2D
:103AD00002D45F0648BFB6B2DF0748BF43F02003F9
:103AE000296048BF23601EB9236823F020032360A8
:103AF0001023A7E72448E4E71546BDE72B682668AE
:103B00006169181D286035061B6801D5196002E03F
:103B10007006FBD51980002323611546BCE72B688E
:103B20001A1D2A601D68626800212846FCF758FBB0
:103B300008B1401B606063682361002384F8433050
:103B4000AAE723692A4649464046D0470130ADD00E
:103B500023689B0713D4E068039B9842B8BF1846BC
:103B6000A6E70123324649464046D04701309DD062
:103B70000135E36803995B1AAB42F2DCEBE7002501
:103B800004F11906F5E700BF5D4000086E4000082B
:103B90008A892DE9F041054610070C4658D44B6838
:103BA000002B05DC0B6C002B02DC0020BDE8F08153
:103BB000E66A002EF9D0002312F480522F68216AA1
:103BC0002B6032D0606DA3895A0705D56368C01A8F
:103BD000636B0BB1236CC01A00230246E66A216AAC
:103BE0002846B047431CA38906D129681D292BD834
:103BF000294A0A41D60727D400226260D9042269E3
:103C0000226004D5421C01D12B6803B96065616B49
:103C10002F600029C9D004F14403994202D02846FC
:103C2000FFF7EAFB00206063C0E701232846B047A6
:103C3000411CC8D12B68002BC5D01D2B01D0162BE1
:103C400001D12F60B1E7A38943F04003A381ADE721
:103C50000F69002FA9D093070E6808BF4B690F604A
:103C600018BF0023A6EB07088B60B8F1000F9CDD9E
:103C7000216AA66A43463A462846B047002806DC31
:103C8000A38943F04003A3814FF0FF308EE7074440
:103C9000A8EB0008E9E700BFFEFFBFDF38B50B69FE
:103CA00005460C4613B90025284638BD18B1036AED
:103CB0000BB9FFF7ABF9B4F90C30002BF3D0626EFF
:103CC000D00704D4990502D4A06DFFF793FB2846D2
:103CD0002146FFF75DFF636EDA070546E4D4A3894A
:103CE0009B05E1D4A06DFFF786FBDDE770B50C46C0
:103CF000B1F90E10002996B015461E460DDAA389BB
:103D000013F0800F4FF000010CBF4FF4806340238D
:103D1000002031602B6016B070BD6A4600F048F894
:103D20000028ECDB019901F47041A1F500535942E0
:103D300059414FF48063EBE78B8973B59D070646C5
:103D40000C4607D504F14703236023610123636117
:103D500002B070BD01AB6A46FFF7C8FF0099054687
:103D60003046FFF7B5FB48B9B4F90C309A05EFD4EB
:103D700023F0030343F00203A381E3E7A389206058
:103D800043F08003A381009B6361019B20615BB1D1
:103D9000B4F90E10304600F01DF828B1A38923F0C5
:103DA000030343F00103A381A3891D43A581CFE74A
:103DB00038B5074D00230446084611462B60FDF731
:103DC00020F9431C02D12B6803B1236038BD00BF2A
:103DD0008806002038B5064D0023044608462B60AF
:103DE000FDF71FF9431C02D12B6803B1236038BDD6
:103DF0008806002038B5064D0023044608462B608F
:103E0000FDF728F9431C02D12B6803B1236038BDAC
:103E100088060020F8B500BFF8BC08BC9E46704775
:0C3E2000F8B500BFF8BC08BC9E46704717
:103E2C0057616974696E6720666F722074686520CB
:103E3C004F544120646174612E2E2E0D0000000041
:103E4C0053656E64696E67204E41434B0D00000054
:103E5C004554585F4F54415F53544154455F494456
:103E6C004C452E2E2E0D00005265636569766564F7
:103E7C00204F544120535441525420436F6D6D6177
:103E8C006E640D005265636569766564204F54411C
:103E9C00204865616465722E2046572053697A6507
:103EAC00203D20256C640D0A000000005B256C642D
:103EBC002F256C645D0D0A00526563656976656437
:103ECC00204F544120454E4420436F6D6D616E640C
:103EDC000D0000005265636569766564206D6F7234
:103EEC00652064617461207468616E20657870650A
:103EFC00637465642E204578706563746564203D39
:103F0C002025642C205265636569766564203D200C
:103F1C0025640D0A0000000045726173696E67200C
:103F2C0074686520466C617368206D656D6F72797D
:103F3C002E2E2E0D00000000466C61736820577207
:103F4C00697465204572726F720D00005374617252
:103F5C0074696E6720426F6F746C6F616465722850
:103F6C0025642E2564290D0A00000000507265732B
:103F7C007320746865207573657220427574746F54
:103F8C006E205043313320746F20747269676765FB
:103F9C0072204F5441205570646174652E2E2E0D85
:103FAC00000000005374617274696E672046697278
:103FBC006D7761726520446F776E6C6F6164202140
:103FCC002121200D000000004F54412055706461E8
:103FDC0074653A204552524F52212048414C54208E
:103FEC000D0000004669726D776172652075706412
:103FFC0061746520697320646F6E6521205265625F
:10400C006F6F74696E672E2E2E200D00476F6E6ECB
:10401C0061204A756D7020746F204170706C6963FB
:10402C006174696F6E0D000000000000000000005C
:10403C000102030406070809000000000102030442
:10404C00232D302B2000686C4C0065666745464775
:10405C0000303132333435363738394142434445F8
:10406C004600303132333435363738396162636467
:04407C006566000075
:0840800030C2FF7F01000000C7
:04408800C501000866
:04408C00A101000886
:104090000024F400100000000100000000000000F7
:1040A000030000004C050020000000004C0500202B
:1040B000B40500201C0600200000000000000000E5
:1040C00000000000000000000000000000000000F0
:1040D00000000000000000000000000000000000E0
:1040E00000000000000000000000000000000000D0
:0840F000000000001800002090
:04000005080010E5FA
:00000001FF
